{
  "contractName": "Storage",
  "abi": [
    {
      "anonymous": false,
      "inputs": [
        {
          "indexed": true,
          "internalType": "address",
          "name": "previousOwner",
          "type": "address"
        },
        {
          "indexed": true,
          "internalType": "address",
          "name": "newOwner",
          "type": "address"
        }
      ],
      "name": "OwnershipTransferred",
      "type": "event"
    },
    {
      "constant": true,
      "inputs": [
        {
          "internalType": "uint256",
          "name": "",
          "type": "uint256"
        }
      ],
      "name": "foods",
      "outputs": [
        {
          "internalType": "uint256",
          "name": "number",
          "type": "uint256"
        },
        {
          "internalType": "string",
          "name": "name",
          "type": "string"
        },
        {
          "internalType": "string",
          "name": "origin",
          "type": "string"
        }
      ],
      "payable": false,
      "stateMutability": "view",
      "type": "function"
    },
    {
      "constant": true,
      "inputs": [],
      "name": "owner",
      "outputs": [
        {
          "internalType": "address",
          "name": "",
          "type": "address"
        }
      ],
      "payable": false,
      "stateMutability": "view",
      "type": "function"
    },
    {
      "constant": false,
      "inputs": [
        {
          "internalType": "address",
          "name": "newOwner",
          "type": "address"
        }
      ],
      "name": "transferOwnership",
      "outputs": [],
      "payable": false,
      "stateMutability": "nonpayable",
      "type": "function"
    },
    {
      "constant": false,
      "inputs": [
        {
          "internalType": "uint256",
          "name": "_number",
          "type": "uint256"
        },
        {
          "internalType": "string",
          "name": "_name",
          "type": "string"
        },
        {
          "internalType": "string",
          "name": "_origin",
          "type": "string"
        }
      ],
      "name": "addFood",
      "outputs": [],
      "payable": false,
      "stateMutability": "nonpayable",
      "type": "function"
    },
    {
      "constant": true,
      "inputs": [
        {
          "internalType": "uint256",
          "name": "_number",
          "type": "uint256"
        }
      ],
      "name": "getFood",
      "outputs": [
        {
          "components": [
            {
              "internalType": "uint256",
              "name": "number",
              "type": "uint256"
            },
            {
              "internalType": "string",
              "name": "name",
              "type": "string"
            },
            {
              "internalType": "string",
              "name": "origin",
              "type": "string"
            }
          ],
          "internalType": "struct Storage.Food[]",
          "name": "",
          "type": "tuple[]"
        }
      ],
      "payable": false,
      "stateMutability": "view",
      "type": "function"
    }
  ],
  "bytecode": "0x6080604052336000806101000a81548173ffffffffffffffffffffffffffffffffffffffff021916908373ffffffffffffffffffffffffffffffffffffffff160217905550610cf9806100536000396000f3fe608060405234801561001057600080fd5b5060043610610074576000357c01000000000000000000000000000000000000000000000000000000009004806314d3f10e146100795780631e4de872146100ab5780638da5cb5b146100db578063f2fde38b146100f9578063fb8d7f0e14610115575b600080fd5b610093600480360361008e91908101906108ef565b610131565b6040516100a293929190610b5d565b60405180910390f35b6100c560048036036100c091908101906108ef565b610298565b6040516100d29190610b3b565b60405180910390f35b6100e36104d5565b6040516100f09190610b20565b60405180910390f35b610113600480360361010e91908101906108c6565b6104fa565b005b61012f600480360361012a9190810190610918565b61064b565b005b6001818154811061013e57fe5b9060005260206000209060030201600091509050806000015490806001018054600181600116156101000203166002900480601f0160208091040260200160405190810160405280929190818152602001828054600181600116156101000203166002900480156101f05780601f106101c5576101008083540402835291602001916101f0565b820191906000526020600020905b8154815290600101906020018083116101d357829003601f168201915b505050505090806002018054600181600116156101000203166002900480601f01602080910402602001604051908101604052809291908181526020018280546001816001161561010002031660029004801561028e5780601f106102635761010080835404028352916020019161028e565b820191906000526020600020905b81548152906001019060200180831161027157829003601f168201915b5050505050905083565b60608060026000848152602001908152602001600020546040519080825280602002602001820160405280156102e857816020015b6102d561078c565b8152602001906001900390816102cd5790505b509050600080905060008090505b6001805490508110156104ca57846001828154811061031157fe5b90600052602060002090600302016000015414156104bd576001818154811061033657fe5b906000526020600020906003020160405180606001604052908160008201548152602001600182018054600181600116156101000203166002900480601f0160208091040260200160405190810160405280929190818152602001828054600181600116156101000203166002900480156103f25780601f106103c7576101008083540402835291602001916103f2565b820191906000526020600020905b8154815290600101906020018083116103d557829003601f168201915b50505050508152602001600282018054600181600116156101000203166002900480601f0160208091040260200160405190810160405280929190818152602001828054600181600116156101000203166002900480156104945780601f1061046957610100808354040283529160200191610494565b820191906000526020600020905b81548152906001019060200180831161047757829003601f168201915b5050505050815250508383815181106104a957fe5b602002602001018190525081806001019250505b80806001019150506102f6565b508192505050919050565b6000809054906101000a900473ffffffffffffffffffffffffffffffffffffffff1681565b6000809054906101000a900473ffffffffffffffffffffffffffffffffffffffff1673ffffffffffffffffffffffffffffffffffffffff163373ffffffffffffffffffffffffffffffffffffffff161461055357600080fd5b600073ffffffffffffffffffffffffffffffffffffffff168173ffffffffffffffffffffffffffffffffffffffff16141561058d57600080fd5b8073ffffffffffffffffffffffffffffffffffffffff166000809054906101000a900473ffffffffffffffffffffffffffffffffffffffff1673ffffffffffffffffffffffffffffffffffffffff167f8be0079c531659141344cd1fd0a4f28419497f9722a3daafe3b4186f6b6457e060405160405180910390a3806000806101000a81548173ffffffffffffffffffffffffffffffffffffffff021916908373ffffffffffffffffffffffffffffffffffffffff16021790555050565b6001604051806060016040528087815260200186868080601f016020809104026020016040519081016040528093929190818152602001838380828437600081840152601f19601f82011690508083019250505050505050815260200184848080601f016020809104026020016040519081016040528093929190818152602001838380828437600081840152601f19601f82011690508083019250505050505050815250908060018154018082558091505090600182039060005260206000209060030201600090919290919091506000820151816000015560208201518160010190805190602001906107419291906107ad565b50604082015181600201908051906020019061075e9291906107ad565b5050505060026000868152602001908152602001600020600081548092919060010191905055505050505050565b60405180606001604052806000815260200160608152602001606081525090565b828054600181600116156101000203166002900490600052602060002090601f016020900481019282601f106107ee57805160ff191683800117855561081c565b8280016001018555821561081c579182015b8281111561081b578251825591602001919060010190610800565b5b509050610829919061082d565b5090565b61084f91905b8082111561084b576000816000905550600101610833565b5090565b90565b60008135905061086181610c88565b92915050565b60008083601f84011261087957600080fd5b8235905067ffffffffffffffff81111561089257600080fd5b6020830191508360018202830111156108aa57600080fd5b9250929050565b6000813590506108c081610c9f565b92915050565b6000602082840312156108d857600080fd5b60006108e684828501610852565b91505092915050565b60006020828403121561090157600080fd5b600061090f848285016108b1565b91505092915050565b60008060008060006060868803121561093057600080fd5b600061093e888289016108b1565b955050602086013567ffffffffffffffff81111561095b57600080fd5b61096788828901610867565b9450945050604086013567ffffffffffffffff81111561098657600080fd5b61099288828901610867565b92509250509295509295909350565b60006109ad8383610aab565b905092915050565b6109be81610c08565b82525050565b60006109cf82610bb2565b6109d98185610bd5565b9350836020820285016109eb85610ba2565b8060005b85811015610a275784840389528151610a0885826109a1565b9450610a1383610bc8565b925060208a019950506001810190506109ef565b50829750879550505050505092915050565b6000610a4482610bbd565b610a4e8185610be6565b9350610a5e818560208601610c44565b610a6781610c77565b840191505092915050565b6000610a7d82610bbd565b610a878185610bf7565b9350610a97818560208601610c44565b610aa081610c77565b840191505092915050565b6000606083016000830151610ac36000860182610b02565b5060208301518482036020860152610adb8282610a39565b91505060408301518482036040860152610af58282610a39565b9150508091505092915050565b610b0b81610c3a565b82525050565b610b1a81610c3a565b82525050565b6000602082019050610b3560008301846109b5565b92915050565b60006020820190508181036000830152610b5581846109c4565b905092915050565b6000606082019050610b726000830186610b11565b8181036020830152610b848185610a72565b90508181036040830152610b988184610a72565b9050949350505050565b6000819050602082019050919050565b600081519050919050565b600081519050919050565b6000602082019050919050565b600082825260208201905092915050565b600082825260208201905092915050565b600082825260208201905092915050565b6000610c1382610c1a565b9050919050565b600073ffffffffffffffffffffffffffffffffffffffff82169050919050565b6000819050919050565b60005b83811015610c62578082015181840152602081019050610c47565b83811115610c71576000848401525b50505050565b6000601f19601f8301169050919050565b610c9181610c08565b8114610c9c57600080fd5b50565b610ca881610c3a565b8114610cb357600080fd5b5056fea365627a7a72315820fee3d73e5ed376e72427e5fbef4a8fad6caa7d395455245a3d26c5479478fe176c6578706572696d656e74616cf564736f6c63430005100040",
  "source": "pragma solidity >= 0.4.0 ;\r\npragma experimental ABIEncoderV2;\r\n\r\nimport \"./ownable.sol\";\r\n\r\ncontract Storage is Ownable {\r\n    struct Food {\r\n        uint number;\r\n        string name;\r\n        string origin;\r\n    }\r\n\r\n    Food[] public foods;\r\n\r\n    mapping (uint => uint) chainLengthCount;\r\n\r\n    function addFood(uint _number, string calldata _name, string calldata _origin) external {\r\n        foods.push(Food(_number, _name, _origin));\r\n        chainLengthCount[_number]++;\r\n    }\r\n\r\n    function getFood(uint _number) external view returns (Food[] memory) {\r\n        Food[] memory result = new Food[](chainLengthCount[_number]);\r\n        uint counter = 0;\r\n        for(uint i = 0; i < foods.length; i++) {\r\n            if(foods[i].number == _number) {\r\n                result[counter] = foods[i];\r\n                counter++;\r\n            }\r\n        }\r\n\r\n        return result;\r\n    }\r\n}",
  "sourcePath": "C:/Users/aaa/Desktop/Fresh-Food-Contract/contracts/contract.sol",
  "compiler": {
    "name": "solc",
    "version": "0.5.16+commit.9c3226ce.Emscripten.clang"
  },
  "schemaVersion": "3.4.1",
  "updatedAt": "2021-05-19T05:56:52.680Z",
  "networkType": "ethereum",
  "devdoc": {
    "methods": {
      "transferOwnership(address)": {
        "details": "Allows the current owner to transfer control of the contract to a newOwner.",
        "params": {
          "newOwner": "The address to transfer ownership to."
        }
      }
    }
  },
  "userdoc": {
    "methods": {}
  }
}