{
  "contractName": "Storage",
  "abi": [
    {
      "constant": true,
      "inputs": [
        {
          "internalType": "uint256",
          "name": "",
          "type": "uint256"
        }
      ],
      "name": "foods",
      "outputs": [
        {
          "internalType": "uint256",
          "name": "number",
          "type": "uint256"
        },
        {
          "internalType": "string",
          "name": "name",
          "type": "string"
        },
        {
          "internalType": "string",
          "name": "origin",
          "type": "string"
        }
      ],
      "payable": false,
      "stateMutability": "view",
      "type": "function"
    },
    {
      "constant": false,
      "inputs": [
        {
          "internalType": "uint256",
          "name": "_number",
          "type": "uint256"
        },
        {
          "internalType": "string",
          "name": "_name",
          "type": "string"
        },
        {
          "internalType": "string",
          "name": "_origin",
          "type": "string"
        }
      ],
      "name": "addFood",
      "outputs": [],
      "payable": false,
      "stateMutability": "nonpayable",
      "type": "function"
    },
    {
      "constant": true,
      "inputs": [
        {
          "internalType": "uint256",
          "name": "_number",
          "type": "uint256"
        }
      ],
      "name": "getFood",
      "outputs": [
        {
          "components": [
            {
              "internalType": "uint256",
              "name": "number",
              "type": "uint256"
            },
            {
              "internalType": "string",
              "name": "name",
              "type": "string"
            },
            {
              "internalType": "string",
              "name": "origin",
              "type": "string"
            }
          ],
          "internalType": "struct Storage.Food[]",
          "name": "",
          "type": "tuple[]"
        }
      ],
      "payable": false,
      "stateMutability": "view",
      "type": "function"
    }
  ],
  "bytecode": "0x608060405234801561001057600080fd5b50610a82806100206000396000f3fe608060405234801561001057600080fd5b506004361061005e576000357c01000000000000000000000000000000000000000000000000000000009004806314d3f10e146100635780631e4de87214610095578063fb8d7f0e146100c5575b600080fd5b61007d600480360361007891908101906106eb565b6100e1565b60405161008c9392919061092f565b60405180910390f35b6100af60048036036100aa91908101906106eb565b610248565b6040516100bc919061090d565b60405180910390f35b6100df60048036036100da9190810190610714565b610485565b005b600081815481106100ee57fe5b9060005260206000209060030201600091509050806000015490806001018054600181600116156101000203166002900480601f0160208091040260200160405190810160405280929190818152602001828054600181600116156101000203166002900480156101a05780601f10610175576101008083540402835291602001916101a0565b820191906000526020600020905b81548152906001019060200180831161018357829003601f168201915b505050505090806002018054600181600116156101000203166002900480601f01602080910402602001604051908101604052809291908181526020018280546001816001161561010002031660029004801561023e5780601f106102135761010080835404028352916020019161023e565b820191906000526020600020905b81548152906001019060200180831161022157829003601f168201915b5050505050905083565b606080600160008481526020019081526020016000205460405190808252806020026020018201604052801561029857816020015b6102856105c6565b81526020019060019003908161027d5790505b509050600080905060008090505b60008054905081101561047a5784600082815481106102c157fe5b906000526020600020906003020160000154141561046d57600081815481106102e657fe5b906000526020600020906003020160405180606001604052908160008201548152602001600182018054600181600116156101000203166002900480601f0160208091040260200160405190810160405280929190818152602001828054600181600116156101000203166002900480156103a25780601f10610377576101008083540402835291602001916103a2565b820191906000526020600020905b81548152906001019060200180831161038557829003601f168201915b50505050508152602001600282018054600181600116156101000203166002900480601f0160208091040260200160405190810160405280929190818152602001828054600181600116156101000203166002900480156104445780601f1061041957610100808354040283529160200191610444565b820191906000526020600020905b81548152906001019060200180831161042757829003601f168201915b50505050508152505083838151811061045957fe5b602002602001018190525081806001019250505b80806001019150506102a6565b508192505050919050565b6000604051806060016040528087815260200186868080601f016020809104026020016040519081016040528093929190818152602001838380828437600081840152601f19601f82011690508083019250505050505050815260200184848080601f016020809104026020016040519081016040528093929190818152602001838380828437600081840152601f19601f820116905080830192505050505050508152509080600181540180825580915050906001820390600052602060002090600302016000909192909190915060008201518160000155602082015181600101908051906020019061057b9291906105e7565b5060408201518160020190805190602001906105989291906105e7565b5050505060016000868152602001908152602001600020600081548092919060010191905055505050505050565b60405180606001604052806000815260200160608152602001606081525090565b828054600181600116156101000203166002900490600052602060002090601f016020900481019282601f1061062857805160ff1916838001178555610656565b82800160010185558215610656579182015b8281111561065557825182559160200191906001019061063a565b5b5090506106639190610667565b5090565b61068991905b8082111561068557600081600090555060010161066d565b5090565b90565b60008083601f84011261069e57600080fd5b8235905067ffffffffffffffff8111156106b757600080fd5b6020830191508360018202830111156106cf57600080fd5b9250929050565b6000813590506106e581610a28565b92915050565b6000602082840312156106fd57600080fd5b600061070b848285016106d6565b91505092915050565b60008060008060006060868803121561072c57600080fd5b600061073a888289016106d6565b955050602086013567ffffffffffffffff81111561075757600080fd5b6107638882890161068c565b9450945050604086013567ffffffffffffffff81111561078257600080fd5b61078e8882890161068c565b92509250509295509295909350565b60006107a98383610898565b905092915050565b60006107bc82610984565b6107c681856109a7565b9350836020820285016107d885610974565b8060005b8581101561081457848403895281516107f5858261079d565b94506108008361099a565b925060208a019950506001810190506107dc565b50829750879550505050505092915050565b60006108318261098f565b61083b81856109b8565b935061084b8185602086016109e4565b61085481610a17565b840191505092915050565b600061086a8261098f565b61087481856109c9565b93506108848185602086016109e4565b61088d81610a17565b840191505092915050565b60006060830160008301516108b060008601826108ef565b50602083015184820360208601526108c88282610826565b915050604083015184820360408601526108e28282610826565b9150508091505092915050565b6108f8816109da565b82525050565b610907816109da565b82525050565b6000602082019050818103600083015261092781846107b1565b905092915050565b600060608201905061094460008301866108fe565b8181036020830152610956818561085f565b9050818103604083015261096a818461085f565b9050949350505050565b6000819050602082019050919050565b600081519050919050565b600081519050919050565b6000602082019050919050565b600082825260208201905092915050565b600082825260208201905092915050565b600082825260208201905092915050565b6000819050919050565b60005b83811015610a025780820151818401526020810190506109e7565b83811115610a11576000848401525b50505050565b6000601f19601f8301169050919050565b610a31816109da565b8114610a3c57600080fd5b5056fea365627a7a7231582003acc17f544d3775f7b5d7d90abee1e99b5d4adaa6554d6eef068d8c1e2bec6b6c6578706572696d656e74616cf564736f6c63430005100040",
  "source": "pragma solidity >= 0.4.0 ;\r\npragma experimental ABIEncoderV2;\r\n\r\ncontract Storage {\r\n    struct Food {\r\n        uint number;\r\n        string name;\r\n        string origin;\r\n    }\r\n\r\n    Food[] public foods;\r\n\r\n    mapping (uint => uint) chainLengthCount;\r\n\r\n    function addFood(uint _number, string calldata _name, string calldata _origin) external {\r\n        foods.push(Food(_number, _name, _origin));\r\n        chainLengthCount[_number]++;\r\n    }\r\n\r\n    function getFood(uint _number) external view returns (Food[] memory) {\r\n        Food[] memory result = new Food[](chainLengthCount[_number]);\r\n        uint counter = 0;\r\n        for(uint i = 0; i < foods.length; i++) {\r\n            if(foods[i].number == _number) {\r\n                result[counter] = foods[i];\r\n                counter++;\r\n            }\r\n        }\r\n\r\n        return result;\r\n    }\r\n}",
  "sourcePath": "C:/Users/aaa/Desktop/Fresh-Food-Contract/contracts/contract.sol",
  "compiler": {
    "name": "solc",
    "version": "0.5.16+commit.9c3226ce.Emscripten.clang"
  },
  "schemaVersion": "3.4.1",
  "updatedAt": "2021-05-19T06:51:29.319Z",
  "devdoc": {
    "methods": {}
  },
  "userdoc": {
    "methods": {}
  }
}